{
  "_format": "hh-sol-artifact-1",
  "contractName": "Challenge2Fixed",
  "sourceName": "contracts/Challenge2Fixed.sol",
  "abi": [
    {
      "inputs": [],
      "stateMutability": "nonpayable",
      "type": "constructor"
    },
    {
      "inputs": [],
      "name": "getFlag",
      "outputs": [
        {
          "internalType": "string",
          "name": "",
          "type": "string"
        }
      ],
      "stateMutability": "view",
      "type": "function"
    },
    {
      "inputs": [],
      "name": "getMessage",
      "outputs": [
        {
          "internalType": "string",
          "name": "",
          "type": "string"
        }
      ],
      "stateMutability": "view",
      "type": "function"
    },
    {
      "inputs": [],
      "name": "resetFlag",
      "outputs": [],
      "stateMutability": "nonpayable",
      "type": "function"
    },
    {
      "inputs": [],
      "name": "setFlag",
      "outputs": [],
      "stateMutability": "nonpayable",
      "type": "function"
    },
    {
      "inputs": [
        {
          "internalType": "string",
          "name": "_message",
          "type": "string"
        }
      ],
      "name": "setMessage",
      "outputs": [],
      "stateMutability": "nonpayable",
      "type": "function"
    }
  ],
  "bytecode": "0x60806040523480156200001157600080fd5b506040518060600160405280603b8152602001620016f7603b913960009080519060200190620000439291906200004a565b506200015f565b8280546200005890620000fa565b90600052602060002090601f0160209004810192826200007c5760008555620000c8565b82601f106200009757805160ff1916838001178555620000c8565b82800160010185558215620000c8579182015b82811115620000c7578251825591602001919060010190620000aa565b5b509050620000d79190620000db565b5090565b5b80821115620000f6576000816000905550600101620000dc565b5090565b600060028204905060018216806200011357607f821691505b602082108114156200012a576200012962000130565b5b50919050565b7f4e487b7100000000000000000000000000000000000000000000000000000000600052602260045260246000fd5b611588806200016f6000396000f3fe608060405234801561001057600080fd5b50600436106100575760003560e01c806312af2e721461005c578063368b87721461006657806362548c7b14610082578063ce6d41de1461008c578063f9633930146100aa575b600080fd5b6100646100c8565b005b610080600480360381019061007b9190610732565b610175565b005b61008a61018f565b005b610094610383565b6040516100a191906113b0565b60405180910390f35b6100b2610415565b6040516100bf91906113b0565b60405180910390f35b60405180602001604052806000815250600190805190602001906100ed92919061059a565b506040518060200160405280600081525060036000600260009054906101000a900473ffffffffffffffffffffffffffffffffffffffff1673ffffffffffffffffffffffffffffffffffffffff1673ffffffffffffffffffffffffffffffffffffffff168152602001908152602001600020908051906020019061017292919061059a565b50565b806000908051906020019061018b92919061059a565b5050565b33600260006101000a81548173ffffffffffffffffffffffffffffffffffffffff021916908373ffffffffffffffffffffffffffffffffffffffff1602179055506040516020016101df9061136f565b6040516020818303038152906040526001908051906020019061020392919061059a565b50600160405160200161021691906112be565b6040516020818303038152906040526001908051906020019061023a92919061059a565b50600160405160200161024d9190611218565b6040516020818303038152906040526001908051906020019061027192919061059a565b5060016040516020016102849190611146565b604051602081830303815290604052600190805190602001906102a892919061059a565b5060016040516020016102bb91906110ab565b604051602081830303815290604052600190805190602001906102df92919061059a565b50600160036000600260009054906101000a900473ffffffffffffffffffffffffffffffffffffffff1673ffffffffffffffffffffffffffffffffffffffff1673ffffffffffffffffffffffffffffffffffffffff16815260200190815260200160002090805461034f906114b1565b61035a929190610620565b50604051806020016040528060008152506001908051906020019061038092919061059a565b50565b606060008054610392906114b1565b80601f01602080910402602001604051908101604052809291908181526020018280546103be906114b1565b801561040b5780601f106103e05761010080835404028352916020019161040b565b820191906000526020600020905b8154815290600101906020018083116103ee57829003601f168201915b5050505050905090565b6060600260009054906101000a900473ffffffffffffffffffffffffffffffffffffffff1673ffffffffffffffffffffffffffffffffffffffff163373ffffffffffffffffffffffffffffffffffffffff16141561055e5760036000600260009054906101000a900473ffffffffffffffffffffffffffffffffffffffff1673ffffffffffffffffffffffffffffffffffffffff1673ffffffffffffffffffffffffffffffffffffffff16815260200190815260200160002080546104d9906114b1565b80601f0160208091040260200160405190810160405280929190818152602001828054610505906114b1565b80156105525780601f1061052757610100808354040283529160200191610552565b820191906000526020600020905b81548152906001019060200180831161053557829003601f168201915b50505050509050610597565b6040518060400160405280600b81526020017f547279206861726465722100000000000000000000000000000000000000000081525090505b90565b8280546105a6906114b1565b90600052602060002090601f0160209004810192826105c8576000855561060f565b82601f106105e157805160ff191683800117855561060f565b8280016001018555821561060f579182015b8281111561060e5782518255916020019190600101906105f3565b5b50905061061c91906106ad565b5090565b82805461062c906114b1565b90600052602060002090601f01602090048101928261064e576000855561069c565b82601f1061065f578054855561069c565b8280016001018555821561069c57600052602060002091601f016020900482015b8281111561069b578254825591600101919060010190610680565b5b5090506106a991906106ad565b5090565b5b808211156106c65760008160009055506001016106ae565b5090565b60006106dd6106d884611403565b6113d2565b9050828152602081018484840111156106f557600080fd5b61070084828561146f565b509392505050565b600082601f83011261071957600080fd5b81356107298482602086016106ca565b91505092915050565b60006020828403121561074457600080fd5b600082013567ffffffffffffffff81111561075e57600080fd5b61076a84828501610708565b91505092915050565b600061077e82611448565b6107888185611453565b935061079881856020860161147e565b6107a181611541565b840191505092915050565b600081546107b9816114b1565b6107c38186611464565b945060018216600081146107de57600181146107ef57610822565b60ff19831686528186019350610822565b6107f885611433565b60005b8381101561081a578154818901526001820191506020810190506107fb565b838801955050505b50505092915050565b6000610838600183611464565b91507f30000000000000000000000000000000000000000000000000000000000000006000830152600182019050919050565b6000610878600183611464565b91507f47000000000000000000000000000000000000000000000000000000000000006000830152600182019050919050565b60006108b8600183611464565b91507f63000000000000000000000000000000000000000000000000000000000000006000830152600182019050919050565b60006108f8600183611464565b91507f67000000000000000000000000000000000000000000000000000000000000006000830152600182019050919050565b6000610938600183611464565b91507f33000000000000000000000000000000000000000000000000000000000000006000830152600182019050919050565b6000610978600183611464565b91507f55000000000000000000000000000000000000000000000000000000000000006000830152600182019050919050565b60006109b8600183611464565b91507f61000000000000000000000000000000000000000000000000000000000000006000830152600182019050919050565b60006109f8600183611464565b91507f72000000000000000000000000000000000000000000000000000000000000006000830152600182019050919050565b6000610a38600183611464565b91507f45000000000000000000000000000000000000000000000000000000000000006000830152600182019050919050565b6000610a78600183611464565b91507f37000000000000000000000000000000000000000000000000000000000000006000830152600182019050919050565b6000610ab8600183611464565b91507f6f000000000000000000000000000000000000000000000000000000000000006000830152600182019050919050565b6000610af8600183611464565b91507f73000000000000000000000000000000000000000000000000000000000000006000830152600182019050919050565b6000610b38600183611464565b91507f6c000000000000000000000000000000000000000000000000000000000000006000830152600182019050919050565b6000610b78600283611464565b91507f64620000000000000000000000000000000000000000000000000000000000006000830152600282019050919050565b6000610bb8600183611464565b91507f79000000000000000000000000000000000000000000000000000000000000006000830152600182019050919050565b6000610bf8600183611464565b91507f54000000000000000000000000000000000000000000000000000000000000006000830152600182019050919050565b6000610c38600183611464565b91507f4c000000000000000000000000000000000000000000000000000000000000006000830152600182019050919050565b6000610c78600183611464565b91507f7d000000000000000000000000000000000000000000000000000000000000006000830152600182019050919050565b6000610cb8600183611464565b91507f7b000000000000000000000000000000000000000000000000000000000000006000830152600182019050919050565b6000610cf8600183611464565b91507f32000000000000000000000000000000000000000000000000000000000000006000830152600182019050919050565b6000610d38600183611464565b91507f62000000000000000000000000000000000000000000000000000000000000006000830152600182019050919050565b6000610d78600183611464565b91507f4f000000000000000000000000000000000000000000000000000000000000006000830152600182019050919050565b6000610db8600283611464565b91507f30320000000000000000000000000000000000000000000000000000000000006000830152600282019050919050565b6000610df8600183611464565b91507f31000000000000000000000000000000000000000000000000000000000000006000830152600182019050919050565b6000610e38600283611464565b91507f63610000000000000000000000000000000000000000000000000000000000006000830152600282019050919050565b6000610e78600183611464565b91507f5f000000000000000000000000000000000000000000000000000000000000006000830152600182019050919050565b6000610eb8600183611464565b91507f35000000000000000000000000000000000000000000000000000000000000006000830152600182019050919050565b6000610ef8600183611464565b91507f66000000000000000000000000000000000000000000000000000000000000006000830152600182019050919050565b6000610f38600283611464565b91507f36320000000000000000000000000000000000000000000000000000000000006000830152600282019050919050565b6000610f78600283611464565b91507f36390000000000000000000000000000000000000000000000000000000000006000830152600282019050919050565b6000610fb8600283611464565b91507f65740000000000000000000000000000000000000000000000000000000000006000830152600282019050919050565b6000610ff8600183611464565b91507f36000000000000000000000000000000000000000000000000000000000000006000830152600182019050919050565b6000611038600183611464565b91507f38000000000000000000000000000000000000000000000000000000000000006000830152600182019050919050565b6000611078600183611464565b91507f64000000000000000000000000000000000000000000000000000000000000006000830152600182019050919050565b60006110b782846107ac565b91506110c282610e6b565b91506110cd82610bab565b91506110d882610aab565b91506110e38261096b565b91506110ee82610e6b565b91506110f98261086b565b91506111048261092b565b915061110f82610beb565b915061111a82610e6b565b915061112582610deb565b915061113082610a6b565b915061113b82610c6b565b915081905092915050565b600061115282846107ac565b915061115d82610e6b565b915061116882610c2b565b915061117382610ceb565b915061117e82610e6b565b915061118982610e6b565b915061119482610aeb565b915061119f82610fab565b91506111aa82610e6b565b91506111b582610deb565b91506111c082610a6b565b91506111cb82610e6b565b91506111d68261102b565b91506111e182610a2b565b91506111ec82610eeb565b91506111f782610d6b565b9150611202826109eb565b915061120d8261092b565b915081905092915050565b600061122482846107ac565b915061122f82610eeb565b915061123a8261092b565b915061124582610f6b565b9150611250826108ab565b915061125b82610ceb565b915061126682610e2b565b91506112718261106b565b915061127c8261092b565b915061128782610a6b565b91506112928261092b565b915061129d826108ab565b91506112a882610d2b565b91506112b38261082b565b915081905092915050565b60006112ca82846107ac565b91506112d582610feb565b91506112e082610eab565b91506112eb826109ab565b91506112f68261092b565b91506113018261082b565b915061130c82610d2b565b9150611317826108ab565b915061132282610f2b565b915061132d82610dab565b91506113388261106b565b915061134382610a6b565b915061134e82610ceb565b915061135982610eeb565b915061136482610b6b565b915081905092915050565b600061137a82610eeb565b915061138582610b2b565b9150611390826109ab565b915061139b826108eb565b91506113a682610cab565b9150819050919050565b600060208201905081810360008301526113ca8184610773565b905092915050565b6000604051905081810181811067ffffffffffffffff821117156113f9576113f8611512565b5b8060405250919050565b600067ffffffffffffffff82111561141e5761141d611512565b5b601f19601f8301169050602081019050919050565b60008190508160005260206000209050919050565b600081519050919050565b600082825260208201905092915050565b600081905092915050565b82818337600083830152505050565b60005b8381101561149c578082015181840152602081019050611481565b838111156114ab576000848401525b50505050565b600060028204905060018216806114c957607f821691505b602082108114156114dd576114dc6114e3565b5b50919050565b7f4e487b7100000000000000000000000000000000000000000000000000000000600052602260045260246000fd5b7f4e487b7100000000000000000000000000000000000000000000000000000000600052604160045260246000fd5b6000601f19601f830116905091905056fea2646970667358221220efbf31eaeed0cfecceee69a3bd039f67bda939a1852624f4f83de9b9f86c0f6b64736f6c6343000800003357656c6c20646f6e652120596f75206b6e6f7720746865206261736963732e204e6f772c2066696e6420746865207365636f6e6420666c61672e2e",
  "linkReferences": {},
  "deployedLinkReferences": {}
}